S01600007072796563746F5F4949495F76312E73726563C8
S11300000C9434000C94F3030C9451000C945100A0
S11300100C9451000C9451000C9451000C94510018
S11300200C9451000C9451000C9451000C94510008
S11300300C9451000C9451000C9451000C945100F8
S11300400C94CC030C9451000C947B030C9451003D
S11300500C9451000C9451000C9451000C945100D8
S11300600C9451000C94510011241FBECFEFD8E022
S1130070DEBFCDBF11E0A0E0B1E0EEE9FAE002C0DE
S113008005900D92AA35B107D9F721E0AAE5B1E0B0
S113009001C01D92A13DB207E1F70E9410030C9428
S11300A04D050C940000089580915E01882319F099
S11300B083E080935A01089508959093C500809336
S11300C0C40088E98093C100E2ECF0E0808186609E
S11300D08083089584B1826084B91092850010925F
S11300E0840087EF97EA9093870080938600E0E886
S11300F0F0E080E88083808182608083E1E8F0E042
S113010088E1808380818260808384EF91E0909392
S113011089008093880087E690E00E945D0087B1A3
S11301208C7F87B98AB18B7F8AB98BB180628BB996
S11301308BB180618BB98AB181608AB914BC92E0B9
S113014095BD8DEE86BD81E080936E00909369002D
S11301508DBB0895609188007091890020916001A1
S11301608DEC289F812D1124869586958695880F80
S1130170982F990F990F980F31E0291330E081E0FF
S113018040915101509152014617570708F080E001
S1130190832349F0E8E8F0E080819181019791831D
S11301A0808310926001809160018F5F8093600171
S11301B008956091880070918900209160018DEC10
S11301C0289F812D1124869586958695880F982FD2
S11301D0990F990F980F31E0291330E081E0409195
S11301E05301509154016417750708F080E083238C
S11301F049F0E8E8F0E08081918101969183808361
S113020010926001809160018F5F80936001089576
S113021080915F01882309F442C080916501909127
S11302206601A0916701B091680140916B01509102
S11302306C0160916D0170916E01841B950BA60B8E
S1130240B70B80936B0190936C01A0936D01B093F5
S11302506E01BB2364F480E098ECA7E1B8EA8093D4
S11302606B0190936C01A0936D01B0936E0160914A
S11302706B0170916C0180916D0190916E010E94EF
S1130280540422EB3DE94FE25EE30E94B8040E946D
S11302901C04709356016093550110925F01809184
S11302A04E018823B1F08BB181708BB980916501C7
S11302B090916601A0916701B091680180936B01F0
S11302C090936C01A0936D01B0936E0110924E0156
S11302D008958BB18E7F8BB9089586B1837090E0B9
S11302E008954091690150916A01052E000C660B36
S11302F0770B8091650190916601A0916701B0919F
S11303006801841B950BA60BB70B80936101909336
S11303106201A0936301B0936401BB2364F480E0A1
S113032098ECA7E1B8EA8093610190936201A093ED
S11303306301B093640108950E9471018091610189
S113034090916201A0916301B0916401813C964C4B
S1130350AD42B10514F010925A0108958091C00085
S11303608823E4F78091C60008959091C00095FF1A
S1130370FCCF8093C60008950F931F93CF93DF9310
S1130380EC01F89400E010E004C00E94B5010F5F96
S11303901F4FFE01EE0FFF1FEB57FE4F0190F08140
S11303A0E02DE00FF11F80818111EFCF8AE00E94E0
S11303B0B5017894DF91CF911F910F9108954091E9
S11303C055015091560120914F0130E091E02417DE
S11303D035070CF090E02091500130E081E04217A5
S11303E053070CF080E0892391E0209184012111CE
S11303F090E0882399F0992389F081E080935A0151
S1130400209165013091660130936A01209369015E
S11304108093840180E090E00E94BC010895809163
S1130420500190E0209155013091560182179307B5
S11304304CF41092840110925A0187E090E00E94DB
S1130440BC0102C00E94710140916101509162019E
S1130450609163017091640121E030E0483E8CE0DA
S113046058078DE36807710514F020E030E08091AF
S1130470840190E02823392381E090E04130594001
S11304806D43710514F480E090E082239323892B5B
S113049019F08BB180718BB9409161015091620167
S11304A0609163017091640121E030E048328FE48F
S11304B058078CE46807710514F020E030E080915F
S11304C0840190E02823392381E090E041345B44A7
S11304D06C44710514F480E090E082239323892B0B
S11304E019F08BB18F7E8BB981E090E0409161016E
S11304F050916201609163017091640141345445EB
S11305006948710514F480E090E02091840130E0A2
S113051082239323892B19F088E080935A0108954C
S113052083E080935A010E94AA00209188003091B0
S1130530890080915101909152012817390739F4AB
S113054085E090E00E94BC0186E080935A01089502
S113055084E080935A0183E090E00E94BC010895F6
S11305608091500190E020915501309156018217FD
S1130570930754F41092840181E090E00E94BC013E
S113058082E080935A0108950E946D01892B41F005
S113059084E090E00E94BC0185E080935A010895B4
S11305A00E94D90008958091500190E02091550156
S11305B03091560182179307BCF482E090E00E94C8
S11305C0BC018091650190916601A0916701B09191
S11305D068018093610190936201A0936301B093D9
S11305E0640189E080935A0108950F931F93CF9378
S11305F0DF938C01F894C0E0D0E003C00E94B50101
S11306002196F801EC0FFD1F80818111F7CF8AE05C
S11306100E94B5017894DF91CF911F910F910895B5
S1130620CF93DF93CDB7DEB764970FB6F894DEBFF0
S11306300FBECDBFE5E8F1E087E491E091838083CC
S113064086E391E09583848384E291E091878087B7
S11306508EE291E0978386838EE391E09383828395
S113066087E191E0938782878EE091E09587848784
S113067080E091E0978786878FED91E09A83898364
S11306808FE092E09C838B8383E590E09E838D834F
S113069080E992E098878F8384E590E09A87898740
S11306A088EA92E09C878B8783ED92E09E878D8712
S11306B08CE590E0988B8F878CE991E09C8B8B8BF9
S11306C080EB92E09A8B898B0E946A0087E591E027
S11306D00E94F5027894E0915A01F0E0EE0FFF1FBA
S11306E081E090E08C0F9D1FE80FF91F0190F081CD
S11306F0E02D0995F0CF1F920F920FB60F9211249F
S11307002F933F934F935F936F937F938F939F9315
S1130710AF93BF93EF93FF930E94AE0180936F0159
S113072080916F018B3720F480916F01843220F423
S113073080916F018A30F9F480916F018A3069F0F9
S113074080915B01E82FF0E090916F01EB56FE4F32
S113075090838F5F80935B010EC0E0915B01F0E0BA
S1130760EB56FE4F108210925B0181E090E0909373
S11307705D0180935C01FF91EF91BF91AF919F91D7
S11307808F917F916F915F914F913F912F910F9036
S11307900FBE0F901F9018951F920F920FB60F92D5
S11307A011248F939F93AF93BF938FEE86BD809157
S11307B0650190916601A0916701B09168010A9664
S11307C0A11DB11D8093650190936601A0936701FB
S11307D0B0936801BF91AF919F918F910F900FBE1D
S11307E00F901F9018951F920F920FB60F9211241D
S11307F02F933F934F935F936F937F938F939F9325
S1130800AF93BF93EF93FF9381E080935F01809355
S11308104E010E940801FF91EF91BF91AF919F910A
S11308208F917F916F915F914F913F912F910F9095
S11308300FBE0F901F9018950E9423046894B11165
S11308400C94B20408950E94970488F09F5798F07E
S1130850B92F9927B751B0F0E1F0660F771F881FC1
S1130860991F1AF0BA95C9F714C0B13091F00E94DB
S1130870B104B1E008950C94B104672F782F882750
S1130880B85F39F0B93FCCF3869577956795B39502
S1130890D9F73EF490958095709561957F4F8F4F71
S11308A09F4F0895E89409C097FB3EF49095809576
S11308B0709561957F4F8F4F9F4F9923A9F0F92F22
S11308C096E9BB279395F695879577956795B795A0
S11308D0F111F8CFFAF4BB0F11F460FF1BC06F5F86
S11308E07F4F8F4F9F4F16C0882311F096E911C098
S11308F0772321F09EE8872F762F05C0662371F0B9
S113090096E8862F70E060E02AF09A95660F771FCC
S1130910881FDAF7880F9695879597F9089557FDFC
S11309209058440F551F59F05F3F71F04795880F59
S113093097FB991F61F09F3F79F0879508951216F0
S113094013061406551FF2CF4695F1DF08C016169C
S113095017061806991FF1CF86957105610508944D
S11309600895E894BB2766277727CB0197F9089564
S11309700E94CB040C943C050E942E0538F00E9482
S1130980350520F0952311F00C9425050C942B05C6
S113099011240C94B2040E948F0470F3959FC1F348
S11309A0950F50E0551F629FF001729FBB27F00D19
S11309B0B11D639FAA27F00DB11DAA1F649F66276E
S11309C0B00DA11D661F829F2227B00DA11D621FBD
S11309D0739FB00DA11D621F839FA00D611D221F77
S11309E0749F3327A00D611D231F849F600D211D5B
S11309F0822F762F6A2F11249F5750409AF0F1F0DE
S1130A0088234AF0EE0FFF1FBB1F661F771F881F46
S1130A1091505040A9F79E3F510580F00C94250554
S1130A200C94B2045F3FE4F3983ED4F38695779533
S1130A306795B795F795E7959F5FC1F7FE2B880FEC
S1130A40911D9695879597F9089597F99F6780E882
S1130A5070E060E008959FEF80EC089500240A940C
S1130A601616170618060906089500240A94121685
S1130A701306140605060895092E0394000C11F4B8
S1130A80882352F0BB0F40F4BF2B11F460FF04C065
S1110A906F5F7F4F8F4F9F4F0895F894FFCFF5
S1130A9E45464543545F52455354415254004546CE
S1130AAE4543545F4F4E004F424A5F52454C4541B9
S1130ABE534544004F424A5F4341544348004F421A
S1130ACE4A5F4D4F56004F424A5F4F4646004F42D3
S1130ADE4A5F4641494C004F424A5F4F4E00010A5D
S10D0AEE14F4019C6312006100007F
S9030000FC
