:100000000C9434000C9467060C9451000C9451002D
:100010000C9451000C9451000C9451000C9451001C
:100020000C9451000C9451000C9451000C9451000C
:100030000C9451000C9451000C9451000C945100FC
:100040000C94FA050C9451000C94A9050C945100E1
:100050000C9451000C9451000C9451000C945100DC
:100060000C9451000C94510011241FBECFEFD8E026
:10007000DEBFCDBF11E0A0E0B1E0E4E9F0E102C0F5
:1000800005900D92AC3DB107D9F722E0ACEDB1E09F
:1000900001C01D92AC34B207E1F70E9405050C9433
:1000A00048080C94000080915D0190E020910502C9
:1000B000309106028217930734F48BB18F7D8BB990
:1000C00086E08093DD018091E101882319F086E0CC
:1000D0008093DD0181E080935B0108950895809114
:1000E000DF019091E001892B39F40895FC01E05F74
:1000F000FD4F2083019602C080E090E0FC01E85CA7
:10010000FD4F20812111F2CFFC01E05FFD4F1082F5
:100110001092E0011092DF0181E08093DC010895EC
:10012000DC0181E020E030E00AC0F901E40FF11DBC
:10013000E60FF71F5081951380E02F5F3F4FFD01C1
:10014000E20FF31F90819111F0CF089549E060E133
:1001500072E082E691E00E949000882331F088E00E
:100160008093DD011092DC01089549E060E172E0C6
:1001700084E691E00E949000882349F081E080931A
:10018000E10183E08093DD011092DC01089549E0F4
:1001900060E172E086E691E00E949000882399F089
:1001A00087E08093DC018091F9019091FA01A091A0
:1001B000FB01B091FC018093E9019093EA01A093C7
:1001C000EB01B093EC0108959093C5008093C400B7
:1001D00088E98093C100E2ECF0E080818660808352
:1001E000089584B1826084B91092850010928400D1
:1001F0008FE39CE99093870080938600E0E8F0E02D
:1002000080E88083808182608083E1E8F0E088E19B
:100210008083808182608083809160019091610100
:10022000909389008093880087E690E00E94E40024
:100230008AB18F778AB98AB18B7F8AB98BB1806294
:100240008AB98BB180618AB98AB180648AB914BCD9
:1002500092E095BD8DEE86BD81E080936E00909317
:1002600069008DBB0895409188005091890080916C
:10027000E40191E08C3808F490E024E7929F800D2F
:10028000112491E0811190E081E020916001309192
:1002900061014217530708F080E0892349F0E8E83C
:1002A000F0E0808191810196918380831092E40136
:1002B00008951092E3018BB18F7D8BB92091880056
:1002C00030918900809160019091610182179307BC
:1002D00018F00E943301089581E080935B0189E06A
:1002E0008093DD01089540918800509189008091AC
:1002F000E40191E08C3808F490E024E7929F800DAF
:10030000112491E0811190E081E020915E01309113
:100310005F012417350708F080E0892349F0E8E8F9
:10032000F0E0808191810197918380831092E401B4
:10033000089589B1807890E008958091F9019091B5
:10034000FA01A091FB01B091FC014091FD01509197
:10035000FE016091FF0170910002841B950BA60BBA
:10036000B70B8093ED019093EE01A093EF01B09352
:10037000F001BB2364F480E098ECA7E1B8EA809335
:10038000ED019093EE01A093EF01B093F001089579
:100390008091F9019091FA01A091FB01B091FC01CB
:1003A0004091010250910202609103027091040297
:1003B000841B950BA60BB70B8093F1019093F20170
:1003C000A093F301B093F401BB2364F480E098ECB4
:1003D000A7E1B8EA8093F1019093F201A093F301B1
:1003E000B093F40108950E94C8018091F1019091A9
:1003F000F201A091F301B091F401813C964CAD4221
:10040000B10524F01092E3011092DD01089580916E
:10041000F9019091FA01A091FB01B091FC0140918A
:10042000E9015091EA016091EB017091EC01841BAC
:10043000950BA60BB70B8093E5019093E601A09373
:10044000E701B093E801BB2364F480E098ECA7E1F6
:10045000B8EA8093E5019093E601A093E701B09399
:10046000E80108950E9407028091E5019091E6015C
:10047000A091E701B091E80180389448AE41B10500
:1004800024F48BB180618BB908958BB18F7E8BB9C9
:100490001092DC0108958091C0008823E4F78091D8
:1004A000C60008959091C00095FFFCCF8093C600D0
:1004B00008950F931F93CF93DF93EC0100E010E0BA
:1004C00004C00E9452020F5F1F4FFE01EE0FFF1F7C
:1004D000EC5DFD4F0190F081E02DE00FF11F808178
:1004E0008111EFCF8AE00E945202DF91CF911F91DC
:1004F0000F910895409105025091060220915C01F0
:1005000030E091E0241735070CF090E020915D0178
:1005100030E081E0421753070CF080E0892391E03E
:100520002091E301211190E08823D9F09923C9F0AB
:1005300081E08093DD014091F9015091FA016091D1
:10054000FB017091FC014093010250930202609301
:100550000302709304028093E30180E090E00E9424
:10056000590281E080935B01089583E08093DD016F
:100570000E943301209188003091890080916001B0
:100580009091610128173907B9F485E090E00E9445
:1005900059028091F9019091FA01A091FB01B0916B
:1005A000FC018093FD019093FE01A093FF01B093A5
:1005B000000286E08093DD01089584E08093DD01F0
:1005C00083E090E00E945902089580915D0190E0DF
:1005D00020910502309106028217930744F481E0CE
:1005E0008093E1011092DD011092DC0108950E94D8
:1005F0009901892B51F084E090E00E9459021092F9
:10060000E10185E08093DD0108952091880030911B
:10061000890080915E0190915F012817390769F484
:1006200081E090E00E94590281E08093E10183E043
:100630008093DD011092DC0108950E9473010895FA
:100640000E949D0180915D0190E020910502309112
:100650000602821793073CF58091ED019091EE011F
:10066000A091EF01B091F00181349445A948B10502
:1006700004F187E090E00E9459028091F901909185
:10068000FA01A091FB01B091FC018093F1019093DC
:10069000F201A093F301B093F40189E08093DD01AE
:1006A0001092E301089586E08093DD0181E080935C
:1006B0005B0108950F931F93CF93DF938C01C0E0EC
:1006C000D0E003C00E9452022196F801EC0FFD1FFA
:1006D00080818111F7CF8AE00E945202DF91CF9191
:1006E0001F910F91089581E080935B0180915D01DE
:1006F00090E02091050230910602821793077CF466
:100700001092E3011092DD018BB18F7D8BB98BB11B
:100710008F7E8BB987E090E00E94590202C00E9450
:10072000C8018091E301882319F08BB180628BB9F5
:100730004091F1015091F2016091F3017091F40147
:1007400021E030E0483E8CE058078DE368077105F2
:1007500014F020E030E08091E30190E02823392379
:1007600081E090E0413059406D43710514F480E020
:1007700090E082239323892B39F088E691E00E9450
:100780005A038BB180618BB94091F1015091F20114
:100790006091F3017091F40121E030E048328FE480
:1007A00058078CE46807710514F020E030E0809170
:1007B000E30190E02823392381E090E041345B4459
:1007C0006C44710514F480E090E082239323892B1C
:1007D00039F08BB18F7E8BB984E791E00E945A0388
:1007E00081E090E04091F1015091F2016091F301BC
:1007F0007091F401413454456948710514F480E066
:1008000090E02091E30130E0822393232091E201E4
:1008100030E082239323892B51F081E080935B01A8
:100820008FE791E00E945A0388E08093DD010895EC
:1008300040E060E172E084E991E00E94900088234A
:1008400021F082E08093DC01089587E991E00E9425
:100850005A031092DC01089542E060E172E08FEAF1
:1008600091E00E949000882321F083E08093DC01D6
:10087000089542E060E172E084EB91E00E94900014
:10088000882321F084E08093DC01089542E060E158
:1008900072E08BEB91E00E949000882321F085E0CC
:1008A0008093DC01089542E060E172E084EC91E025
:1008B0000E949000882321F086E08093DC01089557
:1008C00087E991E00E945A031092DC01089546E006
:1008D00060E172E082E691E00E949000882341F09E
:1008E00088E090E00E94590281E08093E20114C008
:1008F00046E060E172E08CEC91E00E949000882379
:1009000039F089E090E00E9459021092E20104C09F
:1009100087E991E00E945A031092DC0108958091CA
:10092000E301882329F082E691E00E945A0304C083
:100930008CEC91E00E945A031092DC0108958091A2
:10094000E301882301F18091DD01863029F486E6F8
:1009500091E00E945A031BC08091F1019091F20135
:10096000A091F301B091F40181309940AD43B105FC
:100970002CF084E691E00E945A0309C082E691E0DF
:100980000E945A0304C08CEC91E00E945A0310921A
:10099000DC0108950F931F938EEC91E00E945A039F
:1009A00080915B01882371F18091F9019091FA01A6
:1009B000A091FB01B091FC010091F5011091F601AD
:1009C0002091F7013091F801BC01CD01601B710B42
:1009D000820B930B60930B0270930C0280930D02B9
:1009E00090930E020E940E0722EB3DE94FE25EE378
:1009F0000E9472070E94D606709306026093050259
:100A000010925B011F910F910895CF93DF93CDB7A3
:100A1000DEB7A4970FB6F894DEBF0FBECDBFE4E2F9
:100A2000F2E084E591E09183808383E491E0958313
:100A3000848381E391E0918780878BE391E09783C2
:100A400086838BE491E09383828384E291E09387B1
:100A500082878BE191E0958784878DE091E097878D
:100A6000868787E091E0918B808B80E091E0938B8B
:100A7000828B8FE690E09A83898388E194E09C835F
:100A80008B8387E694E098878F838FE894E09A873A
:100A9000898786EA90E09E878D878CE294E09E832A
:100AA0008D838FE994E09C878B8782E392E0988B1B
:100AB0008F878AE792E09A8B898B83E793E09C8B00
:100AC0008B8B89E591E09E8B8D8B85EB92E0988FE7
:100AD0008F8B83E590E09A8F898F8DED92E09C8FCC
:100AE0008B8F80E293E09E8F8D8F8EE690E098A3AF
:100AF0008F8F83EF91E09CA38BA385EE92E09AA366
:100B000089A30E94F100789487ED91E00E945A0336
:100B10000E94CA04E091DD01F0E0EE0FFF1F81E0CA
:100B200090E08C0F9D1FE80FF91F0088F189E02DE0
:100B30000995E091DC01F0E0EE0FFF1F81E090E00D
:100B40008C0F9D1FE80FF91F0190F081E02D099592
:100B5000E1CF1F920F920FB60F9211242F933F9364
:100B60004F935F936F937F938F939F93AF93BF93B5
:100B7000EF93FF930E944B0280930F0280910F022C
:100B80008B3720F480910F02843220F480910F0281
:100B90008A30F9F480910F028A3069F08091DE0189
:100BA000E82FF0E090910F02E85CFD4F90838F5F9B
:100BB0008093DE010EC0E091DE01F0E0E85CFD4FC5
:100BC00010821092DE0181E090E09093E00180932A
:100BD000DF01FF91EF91BF91AF919F918F917F9135
:100BE0006F915F914F913F912F910F900FBE0F909A
:100BF0001F9018951F920F920FB60F9211248F938A
:100C00009F93AF93BF938BB18F7B8BB98CE386BDE2
:100C100080910702909108020196909308028093B8
:100C20000702853691056CF18091F9019091FA01E6
:100C3000A091FB01B091FC018093F5019093F60126
:100C4000A093F701B093F8018BB180648BB98DEE5E
:100C500086BD8091F9019091FA01A091FB01B091BC
:100C6000FC010A96A11DB11D8093F9019093FA0130
:100C7000A093FB01B093FC011092080210920702AE
:100C800014C08091F9019091FA01A091FB01B091FB
:100C9000FC018C599F4FAF4FBF4F8093F901909348
:100CA000FA01A093FB01B093FC018091E4018F5FF6
:100CB0008093E401873910F01092E401BF91AF9165
:100CC0009F918F910F900FBE0F901F9018951F92BC
:100CD0000F920FB60F9211248F929F92AF92BF92F4
:100CE000CF92DF92EF92FF922F933F934F935F93B8
:100CF0006F937F938F939F93AF93BF93EF93FF93E4
:100D00006091F9017091FA018091FB019091FC01D1
:100D10000F2EFAE08F2E912CA12CB12CF02DA501D5
:100D200094010E94070869017A016091F5017091B0
:100D3000F6018091F7019091F801A50194010E94BC
:100D40000708C701B601621B730B840B950B6093F8
:100D50000B0270930C0280930D0290930E020E947E
:100D60000E0722EB3DE94FE25EE30E9472070E940C
:100D7000D6067093060260930502FF91EF91BF9132
:100D8000AF919F918F917F916F915F914F913F9123
:100D90002F91FF90EF90DF90CF90BF90AF909F90FA
:100DA0008F900F900FBE0F901F9018950E94DD0638
:100DB0006894B1110C946C0708950E94510788F053
:100DC0009F5798F0B92F9927B751B0F0E1F0660F0F
:100DD000771F881F991F1AF0BA95C9F714C0B13050
:100DE00091F00E946B07B1E008950C946B07672F98
:100DF000782F8827B85F39F0B93FCCF3869577957F
:100E00006795B395D9F73EF4909580957095619567
:100E10007F4F8F4F9F4F0895E89409C097FB3EF492
:100E200090958095709561957F4F8F4F9F4F992337
:100E3000A9F0F92F96E9BB279395F69587957795B5
:100E40006795B795F111F8CFFAF4BB0F11F460FF75
:100E50001BC06F5F7F4F8F4F9F4F16C0882311F0CD
:100E600096E911C0772321F09EE8872F762F05C0E1
:100E7000662371F096E8862F70E060E02AF09A957C
:100E8000660F771F881FDAF7880F9695879597F971
:100E9000089557FD9058440F551F59F05F3F71F06A
:100EA0004795880F97FB991F61F09F3F79F08795D1
:100EB0000895121613061406551FF2CF4695F1DF5A
:100EC00008C0161617061806991FF1CF86957105EA
:100ED000610508940895E894BB2766277727CB011E
:100EE00097F908950E9485070C94F6070E94E80779
:100EF00038F00E94EF0720F0952311F00C94DF07E3
:100F00000C94E50711240C946C070E94490770F3B8
:100F1000959FC1F3950F50E0551F629FF001729F9E
:100F2000BB27F00DB11D639FAA27F00DB11DAA1FAD
:100F3000649F6627B00DA11D661F829F2227B00DFA
:100F4000A11D621F739FB00DA11D621F839FA00D85
:100F5000611D221F749F3327A00D611D231F849FD5
:100F6000600D211D822F762F6A2F11249F5750402C
:100F70009AF0F1F088234AF0EE0FFF1FBB1F661FA7
:100F8000771F881F91505040A9F79E3F510580F070
:100F90000C94DF070C946C075F3FE4F3983ED4F3A6
:100FA000869577956795B795F795E7959F5FC1F714
:100FB000FE2B880F911D9695879597F9089597F9BF
:100FC0009F6780E870E060E008959FEF80EC0895EF
:100FD00000240A9416161706180609060895002418
:100FE0000A9412161306140605060895092E039492
:100FF000000C11F4882352F0BB0F40F4BF2B11F406
:1010000060FF04C06F5F7F4F8F4F9F4F0895052E85
:1010100097FB1EF400940E941E0857FD07D00E9403
:10102000260807FC03D04EF40C941E0850954095FA
:10103000309521953F4F4F4F5F4F08959095809584
:10104000709561957F4F8F4F9F4F0895A1E21A2EA3
:10105000AA1BBB1BFD010DC0AA1FBB1FEE1FFF1F5C
:10106000A217B307E407F50720F0A21BB30BE40BAC
:10107000F50B661F771F881F991F1A9469F76095F3
:101080007095809590959B01AC01BD01CF010895AD
:04109000F894FFCF02
:101094004F4B5F4F4646004F6B5F4F4E00454645F2
:1010A40043545F52455354415254004546454354BA
:1010B4005F4F4E004F424A5F52454C4541534544B1
:1010C400004F424A5F4341544348004F424A5F4DF8
:1010D4004F56004F424A5F4F4646004F424A5F46D2
:1010E40041494C004F424A5F4F4E00010214E8034D
:1010F400D0073100320033007072656E646520627F
:10110400757A7A0061706167612062757A7A00731A
:10111400652076612061206361707475726172204C
:101124006F626A00415400456C20636F6D616E64A8
:101134006F206E6F2065732076616C69646F002484
:101144004F4E3D00244F424A3D3F002453544154E6
:10115400453D3F0024464F5243453D0030006D69F4
:0C1164006469656E646F00686F6C610068
:00000001FF
