S01600007072796563746F5F4949495F76312E73726563C8
S11300000C9434000C9451000C9451000C94510045
S11300100C9451000C9451000C9451000C94510018
S11300200C9451000C9451000C9451000C94510008
S11300300C9451000C9451000C9451000C945100F8
S11300400C942F010C9451000C94E6000C94510074
S11300500C9451000C9451000C9451000C945100D8
S11300600C9451000C94510011241FBECFEFD8E022
S1130070DEBFCDBF11E0A0E0B1E0E0EBF2E002C0F2
S113008005900D92AC32B107D9F721E0ACE2B1E0B2
S113009001C01D92A139B207E1F70E949B000C94A4
S11300A056010C9400000895089508950895089544
S11300B008950895089508959093C5008093C40009
S11300C088E98093C100E2ECF0E08081866080835F
S11300D0089587E690E00E945C0084B1806384B94F
S11300E08091000180932F018AB18F7B8AB914BC5F
S11300F082E085BD8AE386BD81E080936E00089529
S1130100E7E4F1E086E291E09183808381E291E08B
S1130110938382838CE191E09583848383E191E0EE
S11301209783868383E091E09187808789E091E0DB
S1130130938782870895CF93DF93CDB7DEB7649713
S11301400FB6F894DEBF0FBECDBF83E590E09A836F
S1130150898384E590E09C838B8385E590E09E838E
S11301608D8386E590E098878F8387E590E09A8772
S1130170898788E590E09C878B8789E590E09E8756
S11301808D878AE590E09A8B898B8BE590E09C8B38
S11301908B8B0E9469000E9480007894E09130016A
S11301A0F0913101EE0FFF1F81E090E08C0F9D1F55
S11301B0E80FF91F0190F081E02D0995EFCF8091B0
S11301C0C0008823E4F78091C60008951F920F921F
S11301D00FB60F9211242F933F934F935F936F9316
S11301E07F938F939F93AF93BF93EF93FF930E945B
S11301F0DF0080933201809132018A3089F080914E
S113020032018D3069F080912C01E82FF0E090915B
S11302103201ED5AFE4F90838F5F80932C010EC004
S1130220E0912C01F0E0ED5AFE4F108210922C0167
S113023081E090E090932E0180932D01FF91EF9146
S1130240BF91AF919F918F917F916F915F914F91EA
S11302503F912F910F900FBE0F901F9018951F92F2
S11302600F920FB60F9211248F939F938AE386BD4A
S11302709091020180912F01891720F485B18F7B21
S113028085B903C085B1806485B9809102018F5F0F
S113029080930201883C18F081E0809302019F91D1
S11302A08F910F900FBE0F901F901895F894FFCF69
S11302B00500014552524F5200454D5054595F417B
S11302C04242004F4B5F434C4541520041542B592D
S10F02D00041542B4E0041542B4F4B00B6
S9030000FC
