S01600007072796563746F5F4949495F76312E73726563C8
S11300000C9434000C94DC040C9451000C945100B6
S11300100C9451000C9451000C9451000C94510018
S11300200C9451000C9451000C9451000C94510008
S11300300C9451000C9451000C9451000C945100F8
S11300400C94B5040C9451000C9464040C94510069
S11300500C9451000C9451000C9451000C945100D8
S11300600C9451000C94510011241FBECFEFD8E022
S1130070DEBFCDBF11E0A0E0B1E0E0E7FCE002C0EC
S113008005900D92A23AB107D9F722E0A2EAB1E0B5
S113009001C01D92A430B207E1F70E94E0000C9465
S11300A036060C9400008091A801882319F083E09F
S11300B08093A301089508958091A6019091A701CA
S11300C0892B39F40895FC01E853FE4F20830196EF
S11300D002C080E090E0FC01E051FE4F208121113C
S11300E0F2CFFC01E853FE4F10821092A701109248
S11300F0A60181E08093A4010895DC0181E020E061
S113010030E00AC0F901E40FF11DE60FF71F50813A
S1130110951380E02F5F3F4FFD01E20FF31F9081A5
S11301209111F0CF08959093C5008093C40088E99D
S11301308093C100E2ECF0E08081866080830895C2
S113014084B1826084B9109285001092840087EF94
S113015097EA9093870080938600E0E8F0E080E8D7
S11301608083808182608083E1E8F0E088E180839D
S113017080818260808384EF91E0909389008093F2
S1130180880087E690E00E94930087B18C7F87B94E
S11301908AB18B7F8AB98BB180628BB98BB1806154
S11301A08BB98AB180648AB914BC92E095BD8DEE96
S11301B086BD81E080936E00909369008DBB0895A5
S11301C0CF93DF93CDB7DEB7A4970FB6F894DEBF15
S11301D00FBECDBFECEDF1E084E591E09183808327
S11301E083E491E09583848381E391E09187808720
S11301F08BE391E0978386838BE491E093838283FE
S113020084E291E0938782878BE191E095878487EC
S11302108DE091E09787868787E091E0918B808BD2
S113022080E091E0938B828B8CE590E09A838983C4
S113023085E194E09C838B8389E294E09E838D83A3
S11302408DE992E0988B8F8787EE92E09A8B898B69
S11302508FE193E09C8B8B8B85EA93E09E8B8D8B57
S11302608CEA93E0988F8F8B83E590E09A8F898F47
S113027084EC93E09C8F8B8F83EF93E09E8F8D8F24
S11302808BE590E098A38F8F80E692E09CA38BA3EC
S11302908CEC93E09AA389A30E94A0007894E09147
S11302A0A301F0E0EE0FFF1F81E090E08C0F9D1F93
S11302B0E80FF91F0088F189E02D0995E091A2016A
S11302C0F0E0EE0FFF1F81E090E08C0F9D1FE80F20
S11302D0F91F0190F081E02D0995E1CF609188002C
S11302E0709189002091AC018DEC289F812D1124FF
S11302F0869586958695880F982F990F990F980F54
S113030031E0291330E081E040915E0150915F01BA
S11303104617570708F080E0832349F0E8E8F0E047
S1130320808191810197918380831092AC018091A7
S1130330AC018F5F8093AC01089560918800709147
S113034089002091AC018DEC289F812D1124869584
S113035086958695880F982F990F990F980F31E0FD
S1130360291330E081E040916001509161016417EC
S1130370750708F080E0832349F0E8E8F0E0808125
S113038091810196918380831092AC018091AC019C
S11303908F5F8093AC0108958091AB01882309F4A9
S11303A042C08091B9019091BA01A091BB01B09172
S11303B0BC014091C3015091C4016091C501709189
S11303C0C601841B950BA60BB70B8093C3019093B6
S11303D0C401A093C501B093C601BB2364F480E0BB
S11303E098ECA7E1B8EA8093C3019093C401A09369
S11303F0C501B093C6016091C3017091C40180919D
S1130400C5019091C6010E943D0522EB3DE94FE2F2
S11304105EE30E94A1050E9405057093C2016093EA
S1130420C1011092AB0180915B018823B1F08BB1C3
S113043080748BB98091B9019091BA01A091BB01EC
S1130440B091BC018093C3019093C401A093C501F2
S1130450B093C60110925B0108958BB18F7B8BB969
S1130460089586B1837090E008958091B9019091C8
S1130470BA01A091BB01B091BC014091BD01509162
S1130480BE016091BF017091C001841B950BA60B46
S1130490B70B8093B5019093B601A093B701B093C5
S11304A0B801BB2364F480E098ECA7E1B8EA809338
S11304B0B5019093B601A093B701B093B801089524
S11304C00E9435028091B5019091B601A091B701C7
S11304D0B091B801813C964CAD42B10514F0109234
S11304E0A30108958091B9019091BA01A091BB0133
S11304F0B091BC014091B1015091B2016091B3013E
S11305007091B401841B950BA60BB70B8093AD01BE
S11305109093AE01A093AF01B093B001BB2364F4F8
S113052080E098ECA7E1B8EA8093AD019093AE0126
S1130530A093AF01B093B00108950E94720280911C
S1130540AD019091AE01A091AF01B091B00180389E
S11305509448AE41B10524F48BB180718BB90895F0
S11305608BB18F7E8BB91092A20108958091C00047
S11305708823E4F78091C60008959091C00095FF08
S1130580FCCF8093C60008950F931F93CF93DF93FE
S1130590EC01F89400E010E004C00E94BD020F5F7B
S11305A01F4FFE01EE0FFF1FE452FE4F0190F0813A
S11305B0E02DE00FF11F80818111EFCF8AE00E94CE
S11305C0BD027894DF91CF911F910F9108954091CE
S11305D0C1015091C20120915C0130E091E02417E7
S11305E035070CF090E020915D0130E081E0421786
S11305F053070CF080E0892391E02091AA01211196
S113060090E08823D9F09923C9F081E08093A30175
S11306104091B9015091BA016091BB017091BC0144
S11306204093BD015093BE016093BF017093C0011C
S11306308093AA0180E090E00E94C4020895809112
S11306405D0190E02091C1013091C20182179307AE
S11306504CF41092AA011092A30187E090E00E944A
S1130660C40202C00E9435024091B5015091B60106
S11306706091B7017091B80121E030E0483E8CE010
S113068058078DE36807710514F020E030E080918D
S1130690AA0190E02823392381E090E041305940B9
S11306A06D43710514F480E090E082239323892B39
S11306B019F08BB180718BB94091B5015091B6019D
S11306C06091B7017091B80121E030E048328FE4C5
S11306D058078CE46807710514F020E030E080913D
S11306E0AA0190E02823392381E090E041345B445F
S11306F06C44710514F480E090E082239323892BE9
S113070019F08BB18F7E8BB981E090E04091B501F7
S11307105091B6016091B7017091B80141345445CC
S11307206948710514F480E090E02091AA0130E05A
S1130730822393232091A90130E082239323892BE0
S113074019F088E08093A301089581E090E00E946D
S1130750C4021092A301089583E08093A3010E9430
S11307606E01209188003091890080915E01909102
S11307705F012817390739F485E090E00E94C4022C
S113078086E08093A301089584E08093A30183E02D
S113079090E00E94C402089580915D0190E0209150
S11307A0C1013091C2018217930734F41092AA0157
S11307B082E08093A30108950E943102892B41F0C5
S11307C084E090E00E94C40285E08093A301089530
S11307D08091AC018C3020F082E08093A3010895D5
S11307E00E949D01089580915D0190E02091C101D6
S11307F03091C20182179307BCF482E090E00E941A
S1130800C4028091B9019091BA01A091BB01B09149
S1130810BC018093B5019093B601A093B701B09346
S1130820B80189E08093A301089540E068EC71E089
S113083088E691E00E947D00882321F082E0809385
S1130840A20108958BE691E00E94C4021092A201D5
S1130850089542E068EC71E083E891E00E947D0035
S1130860882321F083E08093A201089542E068EC9C
S113087071E088E891E00E947D00882321F084E003
S11308808093A201089542E068EC71E08FE891E062
S11308900E947D00882321F085E08093A2010895C1
S11308A042E068EC71E088E991E00E947D008823D1
S11308B021F086E08093A20108958BE691E00E94E6
S11308C0C4021092A20108951F920F920FB60F92C4
S11308D011242F933F934F935F936F937F938F9341
S11308E09F93AF93BF93EF93FF930E94B6028093BD
S11308F0C7018091C7018B3720F48091C7018432EE
S113090020F48091C7018A30F9F48091C7018A30BC
S113091069F08091A501E82FF0E09091C701E051C2
S1130920FE4F90838F5F8093A5010EC0E091A501D7
S1130930F0E0E051FE4F10821092A50181E090E0BA
S11309409093A7018093A601FF91EF91BF91AF917E
S11309509F918F917F916F915F914F913F912F91D3
S11309600F900FBE0F901F9018951F920F920FB605
S11309700F9211248F939F93AF93BF938FEE86BDF5
S11309808091B9019091BA01A091BB01B091BC01D1
S11309900A96A11DB11D8093B9019093BA01A09349
S11309A0BB01B093BC01BF91AF919F918F910F9008
S11309B00FBE0F901F9018951F920F920FB60F92B3
S11309C011242F933F934F935F936F937F938F9350
S11309D09F93AF93BF93EF93FF9381E08093AB0119
S11309E080935B010E94CC01FF91EF91BF91AF9185
S11309F09F918F917F916F915F914F913F912F9133
S1130A000F900FBE0F901F9018950E940C056894CC
S1130A10B1110C949B0508950E94800588F09F579E
S1130A2098F0B92F9927B751B0F0E1F0660F771F0E
S1130A30881F991F1AF0BA95C9F714C0B13091F004
S1130A400E949A05B1E008950C949A05672F782FB7
S1130A508827B85F39F0B93FCCF3869577956795C9
S1130A60B395D9F73EF490958095709561957F4F35
S1130A708F4F9F4F0895E89409C097FB3EF49095DB
S1130A808095709561957F4F8F4F9F4F9923A9F063
S1130A90F92F96E9BB279395F695879577956795F2
S1130AA0B795F111F8CFFAF4BB0F11F460FF1BC036
S1130AB06F5F7F4F8F4F9F4F16C0882311F096E9C9
S1130AC011C0772321F09EE8872F762F05C0662377
S1130AD071F096E8862F70E060E02AF09A95660F30
S1130AE0771F881FDAF7880F9695879597F90895E9
S1130AF057FD9058440F551F59F05F3F71F04795CB
S1130B00880F97FB991F61F09F3F79F087950895AF
S1130B10121613061406551FF2CF4695F1DF08C0CE
S1130B20161617061806991FF1CF869571056105EB
S1130B3008940895E894BB2766277727CB0197F993
S1130B4008950E94B4050C9425060E94170638F0F7
S1130B500E941E0620F0952311F00C940E060C94AE
S1130B60140611240C949B050E94780570F3959F3C
S1130B70C1F3950F50E0551F629FF001729FBB2790
S1130B80F00DB11D639FAA27F00DB11DAA1F649F2C
S1130B906627B00DA11D661F829F2227B00DA11DDF
S1130BA0621F739FB00DA11D621F839FA00D611D65
S1130BB0221F749F3327A00D611D231F849F600D86
S1130BC0211D822F762F6A2F11249F5750409AF0AF
S1130BD0F1F088234AF0EE0FFF1FBB1F661F771F3B
S1130BE0881F91505040A9F79E3F510580F00C9406
S1130BF00E060C949B055F3FE4F3983ED4F3869570
S1130C0077956795B795F795E7959F5FC1F7FE2BA5
S1130C10880F911D9695879597F9089597F99F6781
S1130C2080E870E060E008959FEF80EC0895002470
S1130C300A941616170618060906089500240A943D
S1130C4012161306140605060895092E0394000CC3
S1130C5011F4882352F0BB0F40F4BF2B11F460FF52
S1130C6004C06F5F7F4F8F4F9F4F0895F894FFCF5D
S1130C704F4B5F4F4646004F6B5F4F4E0045464516
S1130C8043545F52455354415254004546454354DE
S1130C905F4F4E004F424A5F52454C4541534544D5
S1130CA0004F424A5F4341544348004F424A5F4D1C
S1130CB04F56004F424A5F4F4646004F424A5F46F6
S1130CC041494C004F424A5F4F4E00010A14F4015F
S1130CD09C63310032003300415400456C20636F43
S1130CE06D616E646F206E6F2065732076616C6930
S1130CF0646F00244F4E3D00244F424A3D3F002480
S1130D0053544154453D3F0024464F5243453D0012
S1050D103000AD
S9030000FC
